S02000005B746B696D3035385D5F6C61625B375D5F706172745B325D2E737265637D
S113000045C0000060C000005EC000005CC000008D
S11300105AC0000058C0000056C0000054C0000080
S113002052C0000050C000004EC000004CC0000090
S11300304AC000006DC0000046C0000044C000007B
S113004042C0000040C000003EC000003CC00000B0
S11300503AC0000038C0000036C0000034C00000C0
S113006032C0000030C000002EC000002CC00000D0
S11300702AC0000028C0000026C0000024C00000E0
S113008022C0000020C000001EC0000011241FBEBA
S1130090CFEFD0E4DEBFCDBF11E0A0E0B1E0E4E1FA
S11300A0F3E000E00BBF02C007900D92A430B1074B
S11300B0D9F721E0A4E0B1E001C01D92AE30B2074F
S11300C0E1F7DFD025C19CCF8BE0809381008DE7E1
S11300D090E0909389008093880082E080936F0081
S11300E0109285001092840080910001909101018A
S11300F0A0910201B091030180930701909308013C
S1130100A0930901B0930A018FB780688FBF089547
S11301101F920F920FB60F9211248F939F93AF9358
S1130120BF938091070190910801A0910901B091BA
S11301300A010197A109B10980930701909308016D
S1130140A0930901B0930A01892B8A2B8B2B99F474
S113015081E0809306018091000190910101A091BA
S11301600201B09103018093070190930801A093C9
S11301700901B0930A01BF91AF919F918F910F90A4
S11301800FBE0F901F9018956093000170930101AA
S11301908093020190930301609307017093080117
S11301A08093090190930A01089580910B01813095
S11301B051F028F0823059F0833069F010C081E0AA
S11301C080930B0117C082E080930B011AC083E077
S11301D080930B011DC081E080930B010BC0813023
S11301E049F028F0823069F08330C1F411C01092D4
S11301F00501089580910501887F81608093050140
S1130200089580910501887F826080930501089597
S113021080910501887F8460809305010895809111
S11302200D01813041F018F0823049F00CC081E0BA
S113023080930D0111C082E080930D0110C081E014
S113024080930D0109C0813039F018F0823069F4CF
S113025006C010920401089510920401089580913B
S11302600401807F886080930401089580910C01CB
S1130270811106C09091050180910401892B85B9F3
S1130280089511B88FEF82B984B915B861E070E0B0
S113029080E090E079DF18DF10920B0110920D01DD
S11302A00F2EF8EE8F2EF3E09F2EA12CB12CF02D03
S11302B00F2EFCE2CF2EDD24D394E12CF12CF02D73
S11302C08CE2C81681E0D806E104F10420F06DDF69
S11302D0C12CD12C760188EE881683E09806A104FF
S11302E0B10420F09CDF812C912C5401BFDF80915C
S11302F006018823E1F3109206018FEFC81AD80A89
S1130300E80AF80A8FEF881A980AA80AB80AD8CF18
S1070310F894FFCF8B
S107031401000000E0
S9030000FC
